:100000000C9434000C9449000C9449000C94490061
:100010000C9449000C9449000C9449000C9449003C
:100020000C9449000C9449000C9449000C9449002C
:100030000C9449000C9449000C9449000C9449001C
:100040000C9449000C9449000C9449000C9449000C
:100050000C9449000C9449000C9449000C944900FC
:100060000C9449000C94490011241FBECFEFD8E036
:10007000DEBFCDBF11E0A0E0B1E0E6E6F1E002C0F6
:1000800005900D92A430B107D9F70E94A7000C94F7
:10009000B1000C94000089B186958695869591E013
:1000A0008927817090E0089589B18695869591E0C1
:1000B0008927817090E008951092C50083E38093B2
:1000C000C400E2ECF0E0808186608083E1ECF0E047
:1000D00080818860808308959091C00095FFFCCF57
:1000E0008093C60008958091C00087FFFCCF809167
:1000F000C6000895EF92FF920F931F93CF93DF9363
:10010000F82EE92E8EEF0E946C0081E00E946C00B8
:10011000CF2DDE2D8E0105C0F80181918F010E9447
:100120006C00AF2DBE2DFD0101900020E9F7319745
:10013000EA1BFB0B98012C1B3D0B2E173F0760F3AE
:10014000DF91CF911F910F91FF90EF9008950E9442
:100150005C001AB85A9A5B9A80E091E00E947A009B
:06016000FBCFF894FFCF75
:0401660068690000C4
:00000001FF
